S01700005369676E616C47656E657261746F722E7372656308
S11300000C9434000C948A000C94AA000C944600BE
S11300100C9446000C9446000C9446000C94460044
S11300200C9446000C9446000C9446000C94460034
S11300300C9446000C9446000C9446000C94460024
S11300400C9446000C9446000C9446000C94460014
S11300500C9446000C9446000C9446000C94460004
S11300600C9446000C94460011241FBECFEFD8E038
S1130070DEBFCDBF21E0A0E0B1E001C01D92A330FE
S1130080B207E1F70E94CA000C94E2000C9400004D
S11300901092B90088E98093B80084E08093BC0092
S11300A0089584EA8093BC008091BC008823E4F71F
S11300B0089584E98093BC0008958093BB0084E88C
S11300C08093BC008091BC008823E4F7089580915C
S11300D0B900887F0895CF93DF93C82FD62F0E944D
S11300E051000E946700883091F48C2F8E7F0E940B
S11300F05D000E946700883151F48D2F0E945D00DD
S11301000E946700883219F40E94590080E0DF9150
S1130110CF9108951F920F920FB60F9211248F93CF
S11301208BB180688BB980910101813051F4809149
S1130130000181508093000110920201109201018C
S113014003C081E0809302018F910F900FBE0F9046
S11301501F9018951F920F920FB60F9211248F9330
S11301608BB18F778BB980910201813051F48091EA
S113017000018F5F8093000110920201109201012F
S113018003C081E0809301018F910F900FBE0F9007
S11301901F9018958AB18FEF8AB91BB88FE99FE039
S11301A00197F1F700C000000E94480061E480E577
S11301B00E946B00882319F080958BB902C08FEFE1
S10B01C08BB9FFCFF894FFCFC7
S9030000FC
