:100000000C9434000C9451000C9451000C94510049
:100010000C9451000C94AD000C9451000C945100C0
:100020000C9451000C9451000C9451000C9451000C
:100030000C9451000C9451000C9451000C945100FC
:100040000C9451000C9451000C9451000C945100EC
:100050000C9451000C9451000C9451000C945100DC
:100060000C9451000C94510011241FBECFEFD8E026
:10007000DEBFCDBF11E0A0E0B1E0E0ECF8E002C0EF
:1000800005900D92A631B107D9F721E0A6E1B1E0C4
:1000900001C01D92AB31B207E1F70E94CB000C9476
:1000A0005E040C9400001092B90088E98093B800B7
:1000B00084E08093BC00089584EA8093BC00809122
:1000C000BC008823E4F7089584E98093BC00089578
:1000D0008093BB0084E88093BC008091BC0088239F
:1000E000E4F708958091B900887F0895CF92DF9258
:1000F000FF920F931F93CF93DF93C82F8B01F42EA2
:100100000E945C000E9472008830F9F48C2F8E7F70
:100110000E9468000E947200C82F8831A1F4D0E0CC
:100120000CC068018FEFC81AD80AF80180810E94BC
:100130006800C83149F4DF5F8601DF1590F30E9443
:10014000640080E002C001C08C2FDF91CF911F912D
:100150000F91FF90DF90CF9008951F920F920FB6EE
:100160000F9211248F934D9910C04E9906C0809123
:100170001A01815080931A0105C080911A018F5F86
:1001800080931A0181E0809300018F910F900FBE40
:100190000F901F9018952FEF81EE94E02150804032
:1001A0009040E1F700C000000E94530040E061E58C
:1001B00080E50E9434018FE39FE10197F1F700C0D1
:1001C00000004EE061E071E080E50E947600882347
:1001D00019F080958BB9FFCF8FEF8BB98AB18F7DE6
:1001E0008AB98BB180628BB984E080936800EDE6B8
:1001F000F0E080818062808378948091000181307A
:10020000E1F78FE39FE10197F1F700C0000040E4C0
:1002100065E480E50E94340180911A011F928F935A
:1002200080E191E09F938F931F9284E08F9386E10A
:1002300091E09F938F930E9466018FE39FE1019766
:10024000F1F700C0000043E066E171E080E50E9444
:100250007600109200018DB79EB708960FB6F894FD
:100260009EBF0FBE8DBFC9CF1F93CF93DF93C82F03
:10027000D62F142F0E945C000E947200883011F566
:100280008C2F8E7F0E9468000E9472008831D1F40A
:100290008EEF0E9468000E947200883299F48D2FC0
:1002A0000E9468000E947200883261F4112339F0C4
:1002B000812F0E9468000E947200883219F40E9407
:1002C000640080E0DF91CF911F910895AEE0B0E02F
:1002D000ECE6F1E00C9435040D891E898F89988D28
:1002E00026E02C831A83098397FF02C080E090E800
:1002F00001979E838D83AE01455E5F4F698D7A8D38
:10030000CE0101960E9496014D815E8157FD0AC083
:100310002F813885421753070CF49A01F801E20F38
:10032000F31F10822E96E4E00C945104ABE0B0E091
:10033000ECE9F1E00C9427046C017B018A01FC01DB
:1003400017821682838181FFCCC1CE0101963C01C8
:10035000F6019381F70193FD859193FF81917F01D0
:10036000882309F4BAC1853239F493FD859193FF4E
:1003700081917F01853229F4B60190E00E948D03BE
:10038000E7CF912C212C312CFFE1F315D8F08B32E3
:1003900079F038F4803279F08332A1F4232D206192
:1003A0001DC08D3261F0803369F4232D216016C0A9
:1003B000832D8260382EE32DE4603E2E2AC0F32D7B
:1003C000F8601DC037FC2DC020ED280F2A3040F00A
:1003D0008E32B9F436FC81C1232D2064322E19C02F
:1003E00036FE06C08AE0989E200D1124922E11C080
:1003F000EAE02E9E200D1124222EF32DF0623F2ED6
:1004000008C08C3621F4832D8068382E02C08836CF
:1004100041F4F70193FD859193FF81917F01811153
:10042000B3CF982F9F7D9554933028F40C5F1F4FC6
:100430009FE399830DC0833631F0833771F08335A4
:1004400009F059C021C0F801808189830E5F1F4FD8
:1004500088248394912C530113C02801F2E04F0E9D
:10046000511CF801A080B18036FE03C0692D70E0F8
:1004700002C06FEF7FEFC5010E9482034C01820131
:10048000F32DFF773F2E16C0280122E0420E511CAB
:10049000F801A080B18036FE03C0692D70E002C073
:1004A0006FEF7FEFC5010E9477034C01F32DF068D9
:1004B0003F2E820133FC1BC0822D90E088169906E6
:1004C000B0F4B60180E290E00E948D032A94F4CF4C
:1004D000F50137FC859137FE81915F01B60190E00F
:1004E0000E948D0321102A9421E0821A9108811420
:1004F000910471F7E8C0843611F0893641F5F801AE
:1005000037FE07C060817181828193810C5F1F4F2C
:1005100008C060817181072E000C880B990B0E5F5B
:100520001F4FF32DFF763F2E97FF09C090958095C2
:10053000709561957F4F8F4F9F4FF0683F2E2AE057
:1005400030E0A3010E94C903882E861845C0853774
:1005500031F4232D2F7EB22E2AE030E025C0932DDA
:10056000997FB92E8F36C1F018F4883579F0B5C06F
:10057000803719F0883721F0B0C0E92FE061BE2E36
:10058000B4FE0DC0FB2DF460BF2E09C034FE0AC0BE
:10059000292F2660B22E06C028E030E005C020E1F9
:1005A00030E002C020E132E0F801B7FE07C0608110
:1005B0007181828193810C5F1F4F06C060817181C0
:1005C00080E090E00E5F1F4FA3010E94C903882EB8
:1005D0008618FB2DFF773F2E36FE0DC0232D2E7F74
:1005E000A22E891458F434FE0BC032FC09C0832DAE
:1005F0008E7EA82E05C0B82CA32C03C0B82C01C039
:10060000B92CA4FE0FC0FE01E80DF11D80818033DE
:1006100021F49A2D997EA92E09C0A2FE06C0B3949A
:10062000B39404C08A2D867809F0B394A3FC11C05A
:10063000A0FE06C0B21488F4280C922C9B180EC0A1
:10064000B21460F4B60180E290E00E948D03B3948E
:10065000F7CFB21418F42B1802C0982C212CA4FE4A
:1006600010C0B60180E390E00E948D03A2FE17C087
:10067000A1FC03C088E790E002C088E590E0B601E5
:100680000CC08A2D867859F0A1FE02C08BE201C011
:1006900080E2A7FC8DE2B60190E00E948D038914F0
:1006A00038F4B60180E390E00E948D039A94F7CF6E
:1006B0008A94F301E80DF11D8081B60190E00E945B
:1006C0008D038110F5CF222009F442CEB60180E2DD
:1006D00090E00E948D032A94F6CFF60186819781DF
:1006E00002C08FEF9FEF2B96E2E10C944304FC01D4
:1006F0000590615070400110D8F7809590958E0F4D
:100700009F1F0895FC016150704001900110D8F7BF
:10071000809590958E0F9F1F08950F931F93CF93F1
:10072000DF93FB01238121FD03C08FEF9FEF2CC0DE
:1007300022FF16C046815781248135814217530715
:1007400044F4A081B1819D012F5F3F4F318320830D
:100750008C93268137812F5F3F4F3783268314C0C8
:100760008B01EC01FB010084F185E02D0995892BBB
:10077000E1F6D80116968D919C91179701961796E0
:100780009C938E931697CE01DF91CF911F910F917D
:100790000895FA01AA27283051F1203181F1E89417
:1007A0006F936E7F6E5F7F4F8F4F9F4FAF4FB1E064
:1007B0003ED0B4E03CD0670F781F891F9A1FA11D5F
:1007C000680F791F8A1F911DA11D6A0F711D811D60
:1007D000911DA11D20D009F468943F912AE0269F25
:1007E00011243019305D3193DEF6CF010895462F84
:1007F0004770405D4193B3E00FD0C9F7F6CF462F65
:100800004F70405D4A3318F0495D31FD40524193CD
:1008100002D0A9F7EACFB4E0A6959795879577958A
:100820006795BA95C9F700976105710508959B0111
:10083000AC010A2E06945795479537952795BA959A
:10084000C9F7620F731F841F951FA01D08952F9273
:100850003F924F925F926F927F928F929F92AF9250
:10086000BF92CF92DF92EF92FF920F931F93CF939D
:10087000DF93CDB7DEB7CA1BDB0B0FB6F894DEBF34
:100880000FBECDBF09942A88398848885F846E845A
:100890007D848C849B84AA84B984C884DF80EE80A4
:1008A000FD800C811B81AA81B981CE0FD11D0FB6AD
:1008B000F894DEBF0FBECDBFED010895F894FFCFD1
:1008C00001526F7461727920456E636F64657200C6
:0608D00025303364000036
:00000001FF
