:100000000C9434000C9451000C9451000C94510049
:100010000C9451000C9401020C9451000C9451006A
:100020000C9451000C9451000C9451000C9451000C
:100030000C9451000C9451000C9451000C945100FC
:100040000C9451000C9451000C9451000C945100EC
:100050000C9451000C9451000C9451000C945100DC
:100060000C9451000C94510011241FBECFEFD8E026
:10007000DEBFCDBF11E0A0E0B1E0EEE5FFE002C0E1
:1000800005900D92A231B107D9F721E0A2E1B1E0CC
:1000900001C01D92AC32B207E1F70E941F020C941E
:1000A000AD070C94000080E498E7ADE7B1E08093E1
:1000B000260190932701A0932801B093290180E0A5
:1000C00090E2909323018093220180E090E490934A
:1000D0001D0180931C0180E090EC90932B01809394
:1000E0002A0188EE93E0A0E0B0E080931E01909397
:1000F0001F01A0932001B0932101109225011092BD
:1001000024010E9407030895CF93DF93C82FD92FAE
:100110000E9415038D2F0E94FD028C2F0E94FD026C
:100120000E940303DF91CF91089581110AC080914D
:100130002201909123019E7F9093230180932201BD
:100140000BC0813049F4809122019091230191608C
:1001500090932301809322018091220190912301A9
:100160000E94840008958F929F92AF92BF92CF9287
:10017000DF92EF92FF920F931F93C0902601D090D1
:100180002701E0902801F09029019701860136951A
:10019000279517950795061717072807390768F455
:1001A00000931E0110931F01209320013093210121
:1001B00060E070E080E090E11EC060931E017093EB
:1001C0001F0180932001909321010E94BA0320E037
:1001D00030E040E85DE40E9448044B015C01C70147
:1001E000B6010E94BA039B01AC01C501B4010E9493
:1001F00019030E948B038B019C010F2EFEE03695A4
:10020000279517950795FA95D1F7F02D40911C0188
:1002100050911D01042B152BCB019F73842B952B23
:100220000E948400C8010E9484001F910F91FF90DA
:10023000EF90DF90CF90BF90AF909F908F900895F8
:100240008130910579F082309105B9F0892BF9F46C
:1002500080912201909123018D7D909323018093C1
:10026000220115C080912201909123018F7D82602F
:1002700090932301809322010AC0809122019091E2
:1002800023018D7F806290932301809322018091CE
:100290002201909123010E948400089599232CF457
:1002A00010922501109224010FC0811520E19207C0
:1002B0003CF08FEF9FE0909325018093240104C0D0
:1002C00090932501809324012091240130912501F0
:1002D00080912A0190912B01822B932B0E94840004
:1002E00008950097B1F48091220190912301937FAA
:1002F000909323018093220180E090E490931D016C
:1003000080931C0180E090EC90932B0180932A0154
:1003100017C00197A9F480912201909123019C605C
:10032000909323018093220180E090E890931D0137
:1003300080931C0180E090ED90932B0180932A0123
:1003400080912201909123010E94840008951092CF
:10035000B90088E98093B80084E08093BC000895D8
:1003600084EA8093BC008091BC008823E4F7089560
:1003700084E98093BC0008958093BB0084E8809357
:10038000BC008091BC008823E4F708958091B900F7
:10039000887F0895CF92DF92FF920F931F93CF93A0
:1003A000DF93C82F8B01F42E0E94B0010E94C6017A
:1003B0008830F9F48C2F8E7F0E94BC010E94C60108
:1003C000C82F8831A1F4D0E00CC068018FEFC81AA3
:1003D000D80AF80180810E94BC01C83149F4DF5F6E
:1003E0008601DF1590F30E94B80180E002C001C0D1
:1003F0008C2FDF91CF911F910F91FF90DF90CF90C5
:1004000008951F920F920FB60F9211248F934D995A
:1004100010C04E9906C080911B01815080931B0132
:1004200005C080911B018F5F80931B0181E0809349
:1004300000018F910F900FBE0F901F9018952FEF16
:1004400081EE94E0215080409040E1F700C0000030
:100450000E94A70140E061E580E50E94CB028FE3A6
:100460009FE10197F1F700C000004BE061E071E00F
:1004700080E50E94CA018111FFCF8AB18F7D8AB9C0
:100480008BB180628BB984E080936800EDE6F0E088
:1004900080818062808378940E94530081E00E9472
:1004A000950068EE73E080E090E00E94B30080E089
:1004B00090E00E944E0180E090E00E94710180E097
:1004C00090E00E94200180E00E9495004F9907C0B3
:1004D00080911B0180931A0181E08093000180913B
:1004E0000001813099F78FE39FE10197F1F700C098
:1004F000000040E465E480E50E94CB0280911B018E
:100500001F928F93CDE0D1E0DF93CF931F9214E041
:100510001F9386E191E09F938F930E94B5048FE330
:100520009FE10197F1F700C0000043E066E171E050
:1005300080E50E94CA018FE39FE10197F1F700C0B7
:1005400000004AE465E480E50E94CB0280911A0134
:100550001F928F93DF93CF931F921F9382E191E0BD
:100560009F938F930E94B5048FE39FE10197F1F76A
:1005700000C0000043E062E171E080E50E94CA0132
:10058000109200018DB79EB740960FB6F8949EBFAB
:100590000FBE8DBF9BCF1F93CF93DF93C82FD62F56
:1005A000142F0E94B0010E94C601883011F58C2FD3
:1005B0008E7F0E94BC010E94C6018831D1F48EEF6B
:1005C0000E94BC010E94C601883299F48D2F0E94BE
:1005D000BC010E94C601883261F4112339F0812FD9
:1005E0000E94BC010E94C601883219F40E94B80121
:1005F00080E0DF91CF911F9108958EBD0DB407FE6D
:10060000FDCF8EB5089585B1846085B9089584B114
:100610008C6284B984B18F7E84B90E94030380E523
:100620008CBD8DB58E7F8DBD089585B18B7F85B9CD
:1006300008950E942D030C940E040E94070458F0A4
:100640000E94000440F029F45F3F29F00C94F70366
:1006500051110C9442040C94FD030E941F0468F392
:100660009923B1F3552391F3951B550BBB27AA276B
:1006700062177307840738F09F5F5F4F220F331FA5
:10068000441FAA1FA9F335D00E2E3AF0E0E832D06D
:1006900091505040E695001CCAF72BD0FE2F29D070
:1006A000660F771F881FBB1F261737074807AB0742
:1006B000B0E809F0BB0B802DBF01FF2793585F4FB7
:1006C0003AF09E3F510578F00C94F7030C944204E5
:1006D0005F3FE4F3983ED4F3869577956795B79599
:1006E000F7959F5FC9F7880F911D9695879597F9A4
:1006F0000895E1E0660F771F881FBB1F621773071D
:100700008407BA0720F0621B730B840BBA0BEE1F31
:1007100088F7E09508950E94270488F09F5798F085
:10072000B92F9927B751B0F0E1F0660F771F881FF6
:10073000991F1AF0BA95C9F714C0B13091F00E9410
:100740004104B1E008950C944104672F782F882765
:10075000B85F39F0B93FCCF3869577956795B39537
:10076000D9F73EF490958095709561957F4F8F4FA6
:100770009F4F0895E89409C097FB3EF490958095AB
:10078000709561957F4F8F4F9F4F9923A9F0F92F57
:1007900096E9BB279395F695879577956795B795D5
:1007A000F111F8CFFAF4BB0F11F460FF1BC06F5FBB
:1007B0007F4F8F4F9F4F16C0882311F096E911C0CD
:1007C000772321F09EE8872F762F05C0662371F0EE
:1007D00096E8862F70E060E02AF09A95660F771F02
:1007E000881FDAF7880F9695879597F9089597F9F6
:1007F0009F6780E870E060E008959FEF80EC0895C7
:1008000000240A94161617061806090608950024EF
:100810000A9412161306140605060895092E039469
:10082000000C11F4882352F0BB0F40F4BF2B11F4DD
:1008300060FF04C06F5F7F4F8F4F9F4F089557FD3C
:100840009058440F551F59F05F3F71F04795880F3E
:1008500097FB991F61F09F3F79F0879508951216D5
:1008600013061406551FF2CF4695F1DF08C0161681
:1008700017061806991FF1CF869571056105089432
:100880000895E894BB2766277727CB0197F9089549
:100890000E945B040C940E040E94000438F00E9435
:1008A000070420F0952311F00C94F7030C94FD033A
:1008B00011240C9442040E941F0470F3959FC1F30D
:1008C000950F50E0551F629FF001729FBB27F00DFE
:1008D000B11D639FAA27F00DB11DAA1F649F662753
:1008E000B00DA11D661F829F2227B00DA11D621FA2
:1008F000739FB00DA11D621F839FA00D611D221F5C
:10090000749F3327A00D611D231F849F600D211D3F
:10091000822F762F6A2F11249F5750409AF0F1F0C2
:1009200088234AF0EE0FFF1FBB1F661F771F881F2B
:1009300091505040A9F79E3F510580F00C94F70369
:100940000C9442045F3FE4F3983ED4F38695779588
:100950006795B795F795E7959F5FC1F7FE2B880FD1
:10096000911D9695879597F90895AEE0B0E0EBEB71
:10097000F4E00C9484070D891E898F89988D26E0F8
:100980002C831A83098397FF02C080E090E80197C7
:100990009E838D83AE01455E5F4F698D7A8DCE015A
:1009A00001960E94E5044D815E8157FD0AC02F81AA
:1009B0003885421753070CF49A01F801E20FF31F30
:1009C00010822E96E4E00C94A007ABE0B0E0EBEED2
:1009D000F4E00C9476076C017B018A01FC0117821C
:1009E0001682838181FFCCC1CE0101963C01F601C4
:1009F0009381F70193FD859193FF81917F01882376
:100A000009F4BAC1853239F493FD859193FF819140
:100A10007F01853229F4B60190E00E94DC06E7CF21
:100A2000912C212C312CFFE1F315D8F08B3279F089
:100A300038F4803279F08332A1F4232D20611DC077
:100A40008D3261F0803369F4232D216016C0832D2F
:100A50008260382EE32DE4603E2E2AC0F32DF8602C
:100A60001DC037FC2DC020ED280F2A3040F08E32FB
:100A7000B9F436FC81C1232D2064322E19C036FE14
:100A800006C08AE0989E200D1124922E11C0EAE043
:100A90002E9E200D1124222EF32DF0623F2E08C031
:100AA0008C3621F4832D8068382E02C0883641F4BC
:100AB000F70193FD859193FF81917F018111B3CF60
:100AC000982F9F7D9554933028F40C5F1F4F9FE320
:100AD00099830DC0833631F0833771F0833509F087
:100AE00059C021C0F801808189830E5F1F4F88247F
:100AF0008394912C530113C02801F2E04F0E511C36
:100B0000F801A080B18036FE03C0692D70E002C0FC
:100B10006FEF7FEFC5010E94D1064C018201F32DDA
:100B2000FF773F2E16C0280122E0420E511CF8012B
:100B3000A080B18036FE03C0692D70E002C06FEF67
:100B40007FEFC5010E94C6064C01F32DF0683F2ED1
:100B5000820133FC1BC0822D90E088169906B0F408
:100B6000B60180E290E00E94DC062A94F4CFF50101
:100B700037FC859137FE81915F01B60190E00E94BC
:100B8000DC0621102A9421E0821A91088114910434
:100B900071F7E8C0843611F0893641F5F80137FE67
:100BA00007C060817181828193810C5F1F4F08C0F3
:100BB00060817181072E000C880B990B0E5F1F4F0F
:100BC000F32DFF763F2E97FF09C090958095709585
:100BD00061957F4F8F4F9F4FF0683F2E2AE030E0A6
:100BE000A3010E941807882E861845C0853731F466
:100BF000232D2F7EB22E2AE030E025C0932D997F41
:100C0000B92E8F36C1F018F4883579F0B5C0803729
:100C100019F0883721F0B0C0E92FE061BE2EB4FE94
:100C20000DC0FB2DF460BF2E09C034FE0AC0292F71
:100C30002660B22E06C028E030E005C020E130E09A
:100C400002C020E132E0F801B7FE07C06081718187
:100C5000828193810C5F1F4F06C06081718180E0AB
:100C600090E00E5F1F4FA3010E941807882E861880
:100C7000FB2DFF773F2E36FE0DC0232D2E7FA22E9B
:100C8000891458F434FE0BC032FC09C0832D8E7ECB
:100C9000A82E05C0B82CA32C03C0B82C01C0B92CB9
:100CA000A4FE0FC0FE01E80DF11D8081803321F408
:100CB0009A2D997EA92E09C0A2FE06C0B394B394C2
:100CC00004C08A2D867809F0B394A3FC11C0A0FE5D
:100CD00006C0B21488F4280C922C9B180EC0B214D3
:100CE00060F4B60180E290E00E94DC06B394F7CF96
:100CF000B21418F42B1802C0982C212CA4FE10C09A
:100D0000B60180E390E00E94DC06A2FE17C0A1FCC1
:100D100003C088E790E002C088E590E0B6010CC00F
:100D20008A2D867859F0A1FE02C08BE201C080E2D4
:100D3000A7FC8DE2B60190E00E94DC06891438F42D
:100D4000B60180E390E00E94DC069A94F7CF8A9483
:100D5000F301E80DF11D8081B60190E00E94DC06F0
:100D60008110F5CF222009F442CEB60180E290E056
:100D70000E94DC062A94F6CFF6018681978102C094
:100D80008FEF9FEF2B96E2E10C949207FC01059008
:100D9000615070400110D8F7809590958E0F9F1F7D
:100DA0000895FC016150704001900110D8F78095C2
:100DB00090958E0F9F1F08950F931F93CF93DF93EE
:100DC000FB01238121FD03C08FEF9FEF2CC022FF89
:100DD00016C046815781248135814217530744F458
:100DE000A081B1819D012F5F3F4F318320838C9380
:100DF000268137812F5F3F4F3783268314C08B01B5
:100E0000EC01FB010084F185E02D0995892BE1F6C9
:100E1000D80116968D919C911797019617969C93E1
:100E20008E931697CE01DF91CF911F910F91089568
:100E3000FA01AA27283051F1203181F1E8946F930B
:100E40006E7F6E5F7F4F8F4F9F4FAF4FB1E03ED0B1
:100E5000B4E03CD0670F781F891F9A1FA11D680F4F
:100E6000791F8A1F911DA11D6A0F711D811D911D82
:100E7000A11D20D009F468943F912AE0269F1124F7
:100E80003019305D3193DEF6CF010895462F47705B
:100E9000405D4193B3E00FD0C9F7F6CF462F4F70B6
:100EA000405D4A3318F0495D31FD4052419302D014
:100EB000A9F7EACFB4E0A6959795879577956795BA
:100EC000BA95C9F700976105710508959B01AC01BA
:100ED0000A2E06945795479537952795BA95C9F7E1
:100EE000620F731F841F951FA01D08952F923F92BC
:100EF0004F925F926F927F928F929F92AF92BF922A
:100F0000CF92DF92EF92FF920F931F93CF93DF93D5
:100F1000CDB7DEB7CA1BDB0B0FB6F894DEBF0FBE32
:100F2000CDBF09942A88398848885F846E847D847F
:100F30008C849B84AA84B984C884DF80EE80FD8081
:100F40000C811B81AA81B981CE0FD11D0FB6F894F7
:0E0F5000DEBF0FBECDBFED010895F894FFCFB8
:100F5E0001313235303030303020487A0025303390
:020F6E0064001D
:00000001FF
