:100000000C9434000C943E000C943E000C943E0082
:100010000C943E000C943E000C943E000C943E0068
:100020000C943E000C943E000C943E000C943E0058
:100030000C943E000C943E000C943E000C943E0048
:100040000C943E000C943E000C943E000C943E0038
:100050000C943E000C943E000C943E000C943E0028
:100060000C943E000C943E0011241FBECFEFD8E04C
:10007000DEBFCDBF0E941A010C941D010C9400003C
:1000800000C000C000C000C000C000C00000089553
:10009000549855985C985D980895549AF1DF1DD056
:1000A0000895559AEDDF5498EBDF5598E9DF549A9F
:1000B000E7DF13D00895082E549AE2DF802D0DD08B
:1000C000882311F002D0F8CF0895559A549AD8DFBA
:1000D0005598D6DF5498D4DF08950894881F01C03E
:1000E000880F59F0559A18F40000549802C0549A99
:1000F00000C0C6DF5598C4DFF3CF559A5498C0DFCF
:1001000055984D9BFECF88274C9981E0B9DF992700
:100110000895882701C081E071E0559A5498B0DFB6
:100120005598AEDF4D9BFECF88944C990894771F6D
:10013000A0F7559A813011F0549801C0549AA0DF6D
:1001400055984D9BFECF9CDF872F9927089580E51A
:100150000E944D008EEF0E946D0081E40E946D00B0
:100160000E9465008FE891E00197F1F700C0000060
:10017000089580E50E944D008EEF0E946D0086E498
:100180000E946D000E9465008FE697E10197F1F7EC
:1001900000C00000089580E50E944D008EEF0E948F
:1001A0006D0081E50E946D000E9465008FE697E179
:1001B0000197F1F700C000000895CF93C82F80E5A4
:1001C0000E944D008EEF0E946D0082E50E946D003E
:1001D0008C2F0E946D000E9465008FEC97E00197C4
:1001E000F1F700C00000CF910895CF93C82F80E5AC
:1001F0000E944D008EEF0E946D0083E50E946D000D
:100200008C2F0E946D000E9465008FEF98E101978E
:10021000F1F700C00000CF9108950E94A7000E944E
:10022000CB000E94B90088E20E94DD0085E00E94B8
:0E023000F50008950E940D01FFCFF894FFCF56
:00000001FF
