S01700005369676E616C47656E657261746F722E7372656308
S11300000C9434000C9451000C9451000C94510045
S11300100C9451000C9451000C9451000C94510018
S11300200C9451000C9451000C9451000C94510008
S11300300C9451000C9451000C9451000C945100F8
S11300400C9451000C9451000C9451000C945100E8
S11300500C9451000C9451000C9451000C945100D8
S11300600C9451000C94510011241FBECFEFD8E022
S1130070DEBFCDBF11E0A0E0B1E0E4E7F2E002C0F2
S113008005900D92A630B107D9F721E0A6E0B1E0C2
S113009001C01D92AC30B207E1F70E94CC000C9471
S11300A038010C9400001092B90088E98093B800DC
S11300B084E08093BC00089584EA8093BC0080911E
S11300C0BC008823E4F7089584E98093BC00089574
S11300D08093BB0084E88093BC008091BC0088239B
S11300E0E4F708958091B900887F0895CF93DF9352
S11300F0C82FD62F0E945C000E947200883091F4B1
S11301008C2F8E7F0E9468000E947200883151F407
S11301108D2F0E9468000E947200883219F40E9498
S1130120640080E0DF91CF910895CF92DF92FF9237
S11301300F931F93CF93DF93C82F8B01F42E0E944C
S11301405C000E9472008830F9F48C2F8E7F0E942C
S113015068000E947200C82F8831A1F4D0E00CC05E
S113016068018FEFC81AD80AF80180810E946800DC
S1130170C83149F4DF5F8601DF1590F30E94640003
S113018080E002C001C08C2FDF91CF911F910F91AD
S1130190FF90DF90CF9008958AB18FEF8AB91BB892
S11301A02FEF81EE94E0215080409040E1F700C0B1
S11301B000000E94530045E060E071E080E50E9489
S11301C09500882319F080958BB9FFCF8FEF8BB9F9
S11301D08AB18AB98AB18F798AB98BB18C688BB9A3
S11301E04D9909C080910801811105C081E0809377
S11301F0090180930B014E9909C080910901811175
S113020005C081E08093080180930A0180910B016D
S1130210813021F580910A01813001F58091090135
S1130220813041F4809107018F5F8093070181E061
S11302308093060180910801813041F48091070187
S113024081508093070181E08093060110920B0195
S113025010920A011092090110920801809106017E
S1130260813009F0BDCF61E480E50E947600B8CF0B
S1070270F894FFCF2C
S10902744A6F636B650094
S9030000FC
