S01700005369676E616C47656E657261746F722E7372656308
S11300000C9434000C943E000C943E000C943E007E
S11300100C943E000C943E000C943E000C943E0064
S11300200C943E000C943E000C943E000C943E0054
S11300300C943E000C943E000C943E000C943E0044
S11300400C943E000C943E000C943E000C943E0034
S11300500C943E000C943E000C943E000C943E0024
S11300600C943E000C943E0011241FBECFEFD8E048
S1130070DEBFCDBF0E9440000C9459000C940000D8
S113008084E08AB91BB884E08BB92FEF81EE94E049
S1130090215080409040E1F700C000001BB82FEFD2
S11300A081EE94E0215080409040E1F700C00000D0
S10900B0EACFF894FFCF33
S9030000FC
