:100000000C9434000C94AD000C94CD000C94510071
:100010000C9451000C9451000C9451000C9451001C
:100020000C9451000C9451000C9451000C9451000C
:100030000C9451000C9451000C9451000C945100FC
:100040000C9451000C9451000C9451000C945100EC
:100050000C9451000C9451000C9451000C945100DC
:100060000C9451000C94510011241FBECFEFD8E026
:10007000DEBFCDBF11E0A0E0B1E0E2E1F2E002C0FE
:1000800005900D92A630B107D9F721E0A6E0B1E0C6
:1000900001C01D92A930B207E1F70E94ED000C9457
:1000A00007010C9400001092B90088E98093B80011
:1000B00084E08093BC00089584EA8093BC00809122
:1000C000BC008823E4F7089584E98093BC00089578
:1000D0008093BB0084E88093BC008091BC0088239F
:1000E000E4F708958091B900887F0895CF92DF9258
:1000F000FF920F931F93CF93DF93C82F8B01F42EA2
:100100000E945C000E9472008830F9F48C2F8E7F70
:100110000E9468000E947200C82F8831A1F4D0E0CC
:100120000CC068018FEFC81AD80AF80180810E94BC
:100130006800C83149F4DF5F8601DF1590F30E9443
:1001400064008C2F02C001C08C2FDF91CF911F91D2
:100150000F91FF90DF90CF9008951F920F920FB6EE
:100160000F9211248F938BB180688BB98091070116
:10017000813051F4809106018150809306011092E4
:1001800008011092070103C081E0809308018F915C
:100190000F900FBE0F901F9018951F920F920FB6E1
:1001A0000F9211248F938BB18F778BB980910801B7
:1001B000813051F4809106018F5F80930601109287
:1001C00008011092070103C081E0809307018F911D
:1001D0000F900FBE0F901F9018958AB18FEF8AB9BC
:1001E0001BB88FE99FE00197F1F700C000000E9463
:1001F000530045E060E071E080E50E9476008823CE
:1002000019F080958BB902C08FEF8BB9FFCFF894AE
:02021000FFCF1E
:060212004A6F636B6500FA
:00000001FF
