:100000000C9437000C9445030C9445030C94450361
:100010000C9445030C9445030C9445030C94450340
:100020000C9445030C9445030C9445030C94450330
:100030000C9445030C9445030C9445030C94450320
:100040000C9445030C9445030C9445030C94450310
:100050000C9445030C9445030C9445030C94450300
:100060000C9445030C9445030100011080001124F9
:100070001FBECFEFD8E0DEBFCDBFE8E6F0E040E046
:1000800017C0B591A59135912591059107FD0CC03B
:1000900095918591EF01F92FE82F05900D92A21708
:1000A000B307D9F7FE0104C01D92A217B307E1F709
:1000B000ED36F40731F70E9444020C945F00F89487
:0200C000FFCF70
:1000C20010C00E94180358F00E94110340F029F456
:1000D2005F3F29F00C942C0351110C9420030C94D3
:1000E20042030E94950268F39923B1F3552391F3D9
:1000F200951B550BBB27AA2762177307840738F095
:100102009F5F5F4F220F331F441FAA1FA9F335D0F1
:100112000E2E3AF0E0E832D091505040E695001CA5
:10012200CAF72BD0FE2F29D0660F771F881FBB1F5F
:10013200261737074807AB07B0E809F0BB0B802D3D
:10014200BF01FF2793585F4F3AF09E3F510578F069
:100152000C942C030C9420035F3FE4F3983ED4F3F9
:10016200869577956795B795F7959F5FC9F7880F3D
:10017200911D9695879597F90895E1E0660F771F8F
:10018200881FBB1F621773078407BA0720F0621B20
:0E019200730B840BBA0BEE1F88F7E0950895EF
:1001A0008F929F92AF92BF92CF92DF92EF92FF9287
:1001B0000F931F93C0900A01D0900B01E0900C01A7
:1001C000F0900D01970186013695279517950795B3
:1001D000061717072807390768F4009302011093E0
:1001E0000301209304013093050160E070E080E09A
:1001F00090E11EC06093020170930301809304019B
:10020000909305010E94A70120E030E040E85DE402
:100210000E943E034B015C01C701B6010E94A70189
:100220009B01AC01C501B4010E943A030E94150272
:100230008B019C010F2EFEE03695279517950795AB
:10024000FA95D1F7F02D4091000150910101042B56
:10025000152BCB019F73842B952B0E94EF02C801B5
:100260000E94EF021F910F91FF90EF90DF90CF90CF
:0A027000BF90AF909F908F9008950B
:10027A000FC00E94110338F00E94180320F0952342
:10028A0011F00C942C030C94420311240C942003B7
:10029A000E94950270F3959FC1F3950F50E0551F88
:1002AA00629FF001729FBB27F00DB11D639FAA27C1
:1002BA00F00DB11DAA1F649F6627B00DA11D661F10
:1002CA00829F2227B00DA11D621F739FB00DA11D31
:1002DA00621F839FA00D611D221F749F3327A00DEB
:1002EA00611D231F849F600D211D822F762F6A2F87
:1002FA0011249F5750409AF0F1F088234AF0EE0FEC
:10030A00FF1FBB1F661F771F881F91505040A9F718
:10031A009E3F510580F00C942C030C9420035F3F00
:10032A00E4F3983ED4F3869577956795B795F79554
:10033A00E7959F5FC1F7FE2B880F911D96958795CC
:04034A0097F9089582
:10034E00E89409C097FB3EF4909580957095619561
:10035E007F4F8F4F9F4F9923A9F0F92F96E9BB2717
:10036E009395F695879577956795B795F111F8CF93
:10037E00FAF4BB0F11F460FF1BC06F5F7F4F8F4FFE
:10038E009F4F16C0882311F096E911C0772321F0F4
:10039E009EE8872F762F05C0662371F096E8862F8C
:1003AE0070E060E02AF09A95660F771F881FDAF7E3
:0A03BE00880F9695879597F908952A
:1003C80080E498E7ADE7B1E080930A0190930B01D0
:1003D800A0930C01B0930D0180E090E29093070187
:1003E8008093060180E090E49093010180930001DE
:1003F80080E090EC90930F0180930E0188EE93E0DB
:10040800A0E0B0E08093020190930301A09304015F
:10041800B093050110920901109208010E94D502BB
:02042800089535
:10042A000E949D0288F09F5798F0B92F9927B751DB
:10043A00B0F0E1F0660F771F881F991F1AF0BA957E
:10044A00C9F714C0B13091F00E941F03B1E00895BA
:10045A000C941F03672F782F8827B85F39F0B93FAC
:10046A00CCF3869577956795B395D9F73EF4909531
:0E047A008095709561957F4F8F4F9F4F08952D
:100488000E94E40184B1816084B985B18E7F85B909
:1004980081E00E94B70268EE73E080E090E00E947D
:1004A800D00080E090E00E94720280E00E94B702D3
:1004B8002FEF89E698E1215080409040E1F700C095
:1004C800000085B1816085B92FEF89E698E1215058
:0C04D80080409040E1F700C00000D7CF4A
:1004E40099232CF410920901109208010FC0811570
:1004F40020E192073CF08FEF9FE0909309018093F5
:10050400080104C090930901809308012091080117
:100514003091090180910E0190910F01822B932B50
:060524000E94EF020895A1
:10052A0057FD9058440F551F59F05F3F71F047959A
:10053A00880F97FB991F61F09F3F79F0879508957F
:10054A00121613061406551FF2CF4695F1DF08C09E
:10055A00161617061806991FF1CF869571056105BB
:04056A000894089554
:10056E0081110AC080910601909107019E7F9093A0
:10057E000701809306010BC0813049F4809106017A
:10058E0090910701916090930701809306018091ED
:0C059E000601909107010E94EF020895F1
:1005AA0085B1886085B985B1806285B985B1846075
:1005BA0085B984B18C6284B984B18F7E84B9E4E64A
:1005CA00F0E080818B7F80838DB58E7F8DBD88E53D
:0405DA008CBD089537
:1005DE00CF93DF93C82FD92F0E9436038D2F0E9401
:1005EE0026038C2F0E9426030E943203DF91CF91A7
:0205FE0008955E
:10060000092E0394000C11F4882352F0BB0F40F420
:10061000BF2B11F460FF04C06F5F7F4F8F4F9F4F60
:0206200008953B
:0E06220000240A9416161706180609060895F5
:0E06300000240A9412161306140605060895F7
:0E063E00E894BB2766277727CB0197F908952C
:0C064C008EBD0DB407FEFDCF8EB50895E5
:0C06580097F99F6780E870E060E008956B
:0806640085B1846085B9089599
:08066C0085B18B7F85B908956B
:080674000E9461000C940003D8
:08067C000E943D010C940003F3
:060684009FEF80EC0895D9
:04068A000C940000CC
:00000001FF
